:1007600020506C6561736520496E7075742000209F
:100770005072657373206B657920626567696E20BE
:1007800020002070617373776F72642072696768EC
:100790007420002070617373776F72642077726FBA
:1007A0006E670020696E7075742070617373776F67
:1007B00072640070617373776F7264207269676826
:1007C000742000496E206E65772070617373776FB7
:1007D000726400496E707574206E65772070617365
:1007E0007300776F726420616761696E0070617376
:1007F00073776F726420686173006368616E676508
:1008000020616C72656164790070617373776F72D7
:10081000642077726F6E670070617373776F7264B4
:100820002072656E657700616C7265616479002085
:1008300020202020202020202020202020202020B8
:010840002097
:080C6500063300080008000836
:040ABF007F587E02DC
:100AC300E4FDFCC3ED9FEC9E5015E4FBFA0BBB0069
:0F0AD300010AEB646E4A70F50DBD00010C80E462
:010AE20022F1
:0100090022D4
:0A0C5100D2A1120009D2A00200098E
:0C0C4500D2A1D2A0120009C2A102000935
:0F0C3600C2A1120009D2A0120009D2A102000926
:0B0B0700120B2A120B12AF05120B2A72
:100B1200E4FFD2A012000930A109EFC394FF5003F1
:080B22000F80F4C2A0020009DB
:100B2A00E4FEEF25E0FFC2A012000992A11200091B
:100B3A00D2A01200090EBE08E9C2A0120009D2A171
:030B4A000200099D
:100A9A00C2A0120009D2A1E4FED2A0120009EF25D9
:100AAA00E0FDA2A1E4334DFFC2A01200090EBE0868
:040ABA00E812000935
:010ABE002215
:100C0F00AC07120C457FA0120B2A120B12AF041265
:050C1F000B07020C367A
:020B6F00AD07D0
:100B7100120C457FA0120B07120C457FA1120B2A04
:090B8100120B12120A9A120C3632
:010B8A002248
:0709F1007B00751406E4FD14
:0809F8008B108A1189128D1386
:100A0000E4F515E515C395145023E5132515FFAB43
:100A100010AA11A912851582758300120621FD12F4
:0D0A20000C0F7F147E00120AC3051580D64E
:010A2D0022A6
:090A6700FB7A007921751406FDEB
:080A70008B108A1189128D130D
:100A7800E4FCECC395145019E5132CFF120B6FAB73
:100A880010AA11A9128C82758300EF12064E0C80F1
:010A9800E17C
:010A9900223A
:100C2400C2A7D2A6D2A50000E580339201C2A5A234
:010C340001BE
:010C3500229C
:100B8B00120C2440FBC2A6C2A7C2A58F807F057E94
:0C0B9B0000120AC3D2A5120AC3C2A52290
:100BA700120C2440FBC2A6D2A7C2A58F807F057E68
:0C0BB70000120AC3D2A5120AC3C2A52274
:03000600020BA743
:060A2E007BFF7A08790944
:060A34008B118A128913E8
:100A3A00E4F514AB11AA12A9138514827583001266
:100A4A000621FF120006851482758300A3AB11AA42
:0C0A5A0012A9131206216004051480D7B5
:010A6600226D
:080BDF007E03120AC3E4FDFFCE
:100BE700EF70047F808005BF01027FC0EF2DFF02F9
:020BF7000B8B66
:100BF900C2A57F38120B8B7F0C120B8B7F06120B51
:060C09008B7F01020B8B42
:030AE300859015E6
:100AE600E4F583F582D2A4C2A27F057E00120AC372
:100AF600C2A4D2A2120AC3A3E5826405458370E5A7
:010B060022CC
:090C5B00E4F9120AE609B90AF9EC
:010C6400226D
:1003C8007516FF7590FE8590155315F0E51564F0C8
:1003D80060487F0A7E00120AC38590155315F0E520
:1003E8001564F06035120AE3E5152482601B24C009
:1003F800601224E0600924F07012751601800D75F2
:1004080016028008751603800375160AE51564F050
:1004180060088590155315F080F27590FD8590154C
:100428005315F0E51564F060487F0A7E00120AC390
:100438008590155315F0E51564F06035120AE3E56B
:10044800152483601B24C0601224E0600924F07026
:1004580012751604800D751605800875160680033A
:1004680075160BE51564F060088590155315F08036
:10047800F27590FB8590155315F0E51564F0604B07
:100488007F0A7E00120AC38590155315F0E515649E
:10049800F06038859015120AE6E5152485601B245E
:1004A800C0601224E0600924F07012751607800DF0
:1004B8007516088008751609800375160CE515640D
:1004C800F060088590155315F080F27590F78590C7
:1004D800155315F0E51564F060467F0A7E00120A90
:1004E800C38590155315F0E51564F06033859015B4
:1004F800120AE6E5152489601624C0600D24E06020
:100508000424F0700DE4F516800875160F80037545
:10051800160DE51564F060088590155315F080F206
:02052800AF160C
:01052A0022AE
:0F09B2007513007514007515337B007A007927D3
:0609C1008B108A1189125F
:1009C700E4FFAB13AA14A9158F82758300120621C1
:1009D700FEAB10AA11A9128F827583001206216E31
:0909E7006002C3220FBF06DAD33F
:0109F00022E4
:100970007510FF7F06120B8B7F01120B8BE4FDFFBE
:10098000120BE77BFF7A077960120A34E4FD7F01DE
:10099000120BE77BFF7A07796F120A34E510640ABD
:1009A000600DE510640B60071203C88F1080EDAF77
:0109B0001036
:0109B1002223
:060670007B007A007927EF
:060676008B108A118912AD
:10067C00E4FD7F01120BE7E4F5137F647E00120AA0
:10068C00C3E513C3940650741203C88F14E514F415
:10069C0060F6E514640F6022E514640A601CE5142E
:1006AC00640C60167F2A120BA7AB10AA11A9128535
:1006BC001382758300E51412064EE514640F702F37
:1006CC00E513D3940040281513AD137F01120BE7EB
:1006DC007F20120BA7AB10AA11A912851382758368
:1006EC0000742012064EAD137F01120BE71513E5B3
:1006FC0014B40C08E4FDFF120BE7C322E5136406E7
:10070C0070451203C88F14E514640F6005E514B42A
:10071C000CF0E514640F70281513AD137F01120B48
:10072C00E77F20120BA7AB10AA11A91285138275B3
:10073C008300742012064EAD137F01120BE71513C4
:10074C00E514B40C02D3220513E513C3940750032C
:03075C000206860C
:01075F002277
:10000E0078217C007D007BFF7A08792F7E007F06A9
:10001E001205FB78277C007D007BFF7A0879357E00
:10002E00007F061205FB782D7C007D007BFF7A0891
:10003E00793B7E007F061205FB1209708F0EE50ECE
:10004E00640A6003020157120A677F06120B8B7F48
:10005E0001120B8B7F0F120B8BE4FDFF120BE77B54
:10006E00FF7A077960120A341206704003020119F2
:10007E001209B2400E751300751400751521120980
:10008E00BB504AE4FDFF120BE77F0C120B8B7F0671
:10009E00120B8B7F01120B8B7BFF7A077982120A70
:1000AE0034E4F517C2A2D2A47F907E01120AC3C215
:1000BE00A4D28C751901E50E640D600BE51960076D
:1000CE001203C88F0E80EFC28CD2A2807CE4FDFF9B
:1000DE00120BE77F0C120B8B7F06120B8B7F01121C
:1000EE000B8B7BFF7A077993120A347F907E011275
:1000FE000AC30517E5176404704FF517750F14AF93
:10010E000F150FEF6043120C5B80F4E4FDFF120B32
:10011E00E77F0C120B8B7F06120B8B7F01120B8B62
:10012E007BFF7A077993120A347F907E01120AC3FD
:10013E000517E517B40412E4F517750F14AF0F1574
:10014E000FEF6005120C5B80F4E50E640B6003028A
:10015E0003C7120A677F06120B8B7F01120B8B7F70
:10016E000F120B8BE4FDFF120BE77BFF7A0779A3CF
:10017E00120A347F0F120B8B120670400302039388
:10018E001209B2401175130075140075152112096C
:10019E00BB400302035FE4FDFF120BE77F0C120B63
:1001AE008B7F06120B8B7F01120B8B7BFF7A0779ED
:1001BE00B3120A34E4F5177FF47E01120AC3751ADE
:1001CE0001E51A70030203C77F06120B8B7F011223
:1001DE000B8B7F0F120B8BE4FDFF120BE77BFF7A6D
:1001EE000779C3120A347FF47E01120AC312067015
:1001FE004003020322E4FDFF120BE77F0C120B8B70
:10020E007F06120B8B7F01120B8B7BFF7A0779D344
:10021E00120A34E4FD7F01120BE77BFF7A0779E2C5
:10022E00120A347F20120BDF7F0F120B8B7F061208
:10023E000B8B7F01120B8B7BFF7A0779C3120A346B
:10024E007B007A00792D12067640030202E27513C6
:10025E000075140075152D1209BB503EE4FDFF12FA
:10026E000BE77F0C120B8B7F06120B8B7F01120B91
:10027E008B7BFF7A0779ED120A34E4FD7F01120BB6
:10028E00E77BFF7A0779FA120A347A00792D120980
:10029E00F17FE87E03120AC38034E4FDFF120BE700
:1002AE007F0C120B8B7F06120B8B7F01120B8B12A6
:1002BE000A2E120ABF0517E517B40412E4F51775D6
:1002CE000F14AF0F150FEF6005120C5B80F4E4F501
:1002DE001A0201CFE4FDFF120BE77F0C120B8B7F8E
:1002EE0006120B8B7F01120B8B7BFF7A0779931211
:1002FE000A34120ABF0517E517640460030201CF22
:10030E00F517750F14AF0F150FEF70030201CF1213
:10031E000C5B80F1E4FDFF120BE77F0C120B8B7F61
:10032E0006120B8B7F01120B8B120A2E120ABFE4E0
:10033E00F51A0517E517640460030201CFF517756A
:10034E000F14AF0F150FEF70030201CF120C5B806D
:10035E00F1E4FDFF120BE77F0C120B8B7F06120BE5
:10036E008B7F01120B8B120A2E120ABF0517E5178F
:10037E0064047045F517750F14AF0F150FEF603944
:10038E00120C5B80F4E4FDFF120BE77F0C120B8B5B
:10039E007F06120B8B7F01120B8B120A2E120ABFD5
:1003AE000517E517B40412E4F517750F14AF0F1502
:0903BE000FEF6005120C5B80F4E6
:0103C7002213
:100B4D00120BF9120C51C2A4D2A2758901D2AFD2E7
:100B5D00A9D2A8D288C28C758C4CE4F58A12000EED
:020B6D0080FB0B
:03000300020841AF
:10084100C0E0C083C082C0D075D000C000C001C06C
:1008510002C003C004C005C006C0077FD07E0712D6
:100861000AC320B265E4FDFF120BE77F0C120B8B6C
:100871007F06120B8B7F01120B8B120C517A0079C0
:10088100331209F17BFF7A087918120A34E4FD7FEB
:1008910001120BE77BFF7A087927120A347FE812ED
:1008A1000BDF7F0C120B8B7F06120B8B7F01120B60
:1008B1008B7BFF7A077960120A34E4FD7F01120B0A
:1008C100E77BFF7A07796F120A34D007D006D0058B
:1008D100D004D003D002D001D000D0D0D082D083B8
:0308E100D0E03232
:03000B00020BC322
:100BC300C0E0C0D0758C4C758A000518E518B4C810
:0C0BD30006751800751900D0D0D0E03273
:030000000208E40F
:0C08E400787FE4F6D8FD75813802092BFE
:10052B00E709F608DFFA8046E709F208DFFA803EB2
:10053B0088828C83E709F0A3DFFA8032E309F6089F
:10054B00DFFA8078E309F208DFFA807088828C8307
:10055B00E309F0A3DFFA806489828A83E0A3F608BB
:10056B00DFFA805889828A83E0A3F208DFFA804C95
:10057B0080D280FA80C680D4806980F2803380106C
:10058B0080A680EA809A80A880DA80E280CA8033D5
:10059B0089828A83ECFAE493A3C8C582C8CCC5834D
:1005AB00CCF0A3C8C582C8CCC583CCDFE9DEE7801D
:1005BB000D89828A83E493A3F608DFF9ECFAA9F09C
:1005CB00EDFB2289828A83ECFAE0A3C8C582C8CCF2
:1005DB00C583CCF0A3C8C582C8CCC583CCDFEADE0B
:1005EB00E880DB89828A83E493A3F208DFF980CC6D
:1005FB0088F0EF60010E4E60C388F0ED2402B40466
:10060B000050B9F582EB2402B4040050AF2323450C
:06061B00822390057B73B1
:10062100BB010CE58229F582E5833AF583E022508E
:1006310006E92582F8E622BBFE06E92582F8E222D8
:0D064100E58229F582E5833AF583E49322F2
:10064E00F8BB010DE58229F582E5833AF583E8F0E2
:10065E00225006E92582C8F622BBFE05E92582C88E
:02066E00F22276
:1008F000020B4DE493A3F8E493A34003F68001F2C6
:1009000008DFF48029E493A3F85407240CC8C33308
:10091000C4540F4420C8834004F456800146F6DFD7
:10092000E4800B0102040810204080900C65E47EF6
:10093000019360BCA3FF543F30E509541FFEE493CC
:10094000A360010ECF54C025E060A840B8E493A393
:10095000FAE493A3F8E493A3C8C582C8CAC583CABE
:10096000F0A3C8C582C8CAC583CADFE9DEE780BE76
:010C6D000086
:00000001FF
